:100000006F009007130000001300000013000000B1
:100010001300000013000000130000001300000094
:100020001300000013000000130000001300000084
:08003000130000007300100032
:100038000000000000000000080300000C0300009E
:1000480000000000BE0700000000000000000000E3
:10005800C0070000C2070000000000000000000008
:10006800C407000000000000C607000000000000F0
:10007800C8070000CA070000CC070000CE07000030
:10008800D0070000D2070000D4070000D607000000
:10009800D8070000DA070000DC070000DE070000D0
:1000A800E0070000E2070000E4070000E6070000A0
:1000B800E8070000EA070000EC070000EE07000070
:1000C800F0070000F2070000F4070000F607000040
:1000D800F8070000FA070000FC070000FE07000010
:1000E80000080000020800000408000006080000DC
:1000F800080800000A0800000C0800000E080000AC
:10010800100800001208000014080000160800007B
:10011800180800001A0800001C0800001E0800004B
:10012800200800002208000024080000260800001B
:10013800280800002A0800002C0800002E080000EB
:1001480030080000320800003408000036080000BB
:10015800380800003A0800003C0800003E0800008B
:10016800400800004208000044080000460800005B
:10017800480800004A0800004C0800004E0800002B
:1001880050080000FC4C000054080000560800000D
:10019800580800005A0800005C0800005E080000CB
:1001A800600800006208000064080000660800009B
:1001B800680800006A0800006C0800006E0800006B
:1001C800700800007208000074080000760800003B
:1001D8000000000000000000000000000000000017
:1001E8000000000000000000000000000000000007
:0801F8000000000000000000FF
:10020000397101436EC619A0397141536AC866CA73
:1002100062CC5ECE19A0397101535AD056D252D455
:100220004ED64AD826DA22DC06DE330161408282CD
:1002300041114AC026C222C406C68282B24D410183
:10024000024D924C224CB24B4101024B924A224A3F
:10025000B2494101024992442244B24041018280A4
:100260003D432A876373C3029377F700BDEFADE583
:10027000937606FF3D8ABA960CC34CC30CC74CC795
:100280004107E36BD7FE11E28280B306C3408A06C2
:100290009702000096966780A6002307B700A30682
:1002A000B7002306B700A305B7002305B700A304D2
:1002B000B7002304B700A303B7002303B700A302CA
:1002C000B7002302B700A301B7002301B700A300C2
:1002D000B7002300B700828093F5F50F9396850051
:1002E000D58D93960501D58D61B79396270097021A
:1002F000000096968682E78086FA9680C1171D8F49
:100300003E96E374C3F8A5B77300203001A0EFF266
:100310003FF20545EF0050700145EF00706A094556
:10032000EF0070680545EF00506B0545EF00906CDD
:100330000565854513050580EF005061B7E700E0CE
:100340003707200023A4E71031B7EFF27FEE411109
:100350008545414502C202C402C6EF001061930701
:1003600000087C8291473EC64C008D4737150140FE
:100370003EC42944EF00807AA301010093050008E0
:1003800037150140EF0090419C817D141374F40FE8
:10039000AA9793F7F70FDC8175F09C8193F7F70F1D
:1003A00099C3410145BD01A0EFF29FE80945EF0067
:1003B000D03F252AEF00507A493F85451545EF008B
:1003C000D05A3D2CEF60406AEF40507775DDEF600A
:1003D000E078EF60D01DEF606078EF60501DC5BF22
:1003E000B71702409843B706FFF84111136717008B
:1003F00098C3D84337150240B7050200758FD8C39C
:100400009843B706F7FEFD16758F98C39843B70655
:10041000FCFFFD16758F98C3D843B70681FFFD1604
:10042000758FD8C39843B70600ECFD16758F98C337
:100430003707FF0098C723A6070202C402C69843E5
:10044000C1660566558F98C321A0A247638AC7007D
:100450001C41ED8F3EC6A24785073EC4B247F5D783
:10046000B71702409C431397E700635A070085477C
:100470003EC6324785476309F7004101828002C6C4
:1004800032478547E31BF7FEB7170240D8433706CC
:10049000C1FF7D16D8C3D843D8C3D4433717024011
:1004A00093E60640D4C3D443F18ED4C3D443370675
:1004B0002900D18ED4C3944337060001D18E94C352
:1004C0001C4393966700E3DD06FE5C43371602404B
:1004D000A146F19B5CC35C4393E727005CC35C428D
:1004E000B18BE39ED7FE41018280371702405C4307
:1004F0009146B18B638DD702A1466383D704B717AA
:100500007A0037060020938707201306060837175E
:100510000240584311839376F700370700201307F2
:10052000070036971823B3D7E7001CC28280B7278D
:10053000B70037060020938707B013060608C1BF2F
:100540005C43544313D727013D8BC167FD8E93074E
:10055000270015CF3D476380E70A4147639FE704C3
:100560000147BD4785EAB746024083A60680C18A97
:10057000B9CAB7167A0093860620B387D702370622
:100580000020130606081CC259D3858349B70147CA
:10059000C947F1DAB7160240D4421396E600635019
:1005A0000604B7965B00938606D8B387D702370652
:1005B0000020130606081CC2C1BF45476390E7042C
:1005C0000147C14745B7B7163D0093860690B387EC
:1005D000D70237060020130606081CC275B7B726D7
:1005E000B700938606B0B387D702370600201306FC
:1005F00006081CC251BF0547B547ADB701479DB7B7
:10060000EFF27FC1397185451145EF001036854500
:100610002145EF009035854537050400EF00D036C1
:1006200085450545EF0090323719014013050980D3
:100630009305004002C402C602C8EF00D016930A18
:1006400000400D4AC1492C00130509C0B7540040B1
:100650002314510152C64EC8D12183D7C4802C0027
:10066000130509C0C207C183CD9BC207C18323966E
:10067000F4808567938707807C84930780043EC855
:100680007129E1472C00130509C03EC8231451010C
:1006900052C669218545054502CA02CC02CE02D068
:1006A00002D202D402D602D802DA02DC02DEEF0065
:1006B000F029B747004093874740370902403ECAB8
:1006C00093070008130509033ED48D674ECE3EDC28
:1006D00002CC02D002D202D602D802DA02DE3524DF
:1006E000B76700209387C751138404804C08130513
:1006F00009033ECC93844480930700203ED026CA51
:1007000002CE652E130509038545C52E05462285B3
:1007100093050004EF003041F1679387072002CE74
:100720004C0822853ECAB147FC8702CC02D0EF00BC
:10073000103085452285EF00903D216139B6EFF2FA
:100740003FAF1431102138213C31A206D18E42072F
:10075000558FE20754214111D98F3EC002C202C415
:1007600002C605475C316387E60409476389E602F0
:100770000547638BE7020947638DE7003755004063
:100780008A85B147130505807C85EF00502A410119
:10079000D1B4930700407C8485677C82C5B7096724
:1007A00078830547E399E7FC930700607C848567BD
:1007B0007C82E9B70D67788365BF01A001A001A025
:1007C00001A001A001A001A001A001A001A001A021
:1007D00001A001A001A001A001A001A001A001A011
:1007E00001A001A001A001A001A001A001A001A001
:1007F00001A001A001A001A001A001A001A001A0F1
:1008000001A001A001A001A001A001A001A001A0E0
:1008100001A001A001A001A001A001A001A001A0D0
:1008200001A001A001A001A001A001A001A001A0C0
:1008300001A001A001A001A001A001A001A001A0B0
:1008400001A001A001A001A001A001A001A001A0A0
:1008500001A001A001A001A001A001A001A001A090
:1008600001A001A001A001A001A001A001A001A080
:1008700001A001A001A001A09701002093818100A7
:100880001771002013010178178500001305453CFE
:1008900097F5FF1F938505771386018563FAC500D9
:1008A0008322050023A0550011059105E3EAC5FE4A
:1008B00017650020130505C3976500209385C51CA7
:1008C0006377B500232005001105E36DB5FEFD42F9
:1008D000739002BCAD4273904280B7620000938275
:1008E000820873A0023097F2FFFF9382227593E291
:1008F000320073905230EFF0BFAE97020000938247
:10090000E2AA73901234730020301C4141677917BA
:10091000F98F1CC123200500232205002324050094
:10092000B70702402326050013878700630EE508FA
:100930001387C7016305E508138707036301E50A09
:10094000138747046304E50A138787056303E508F3
:100950001387C7066301E50A138707086301E50CDF
:10096000138787406303E50C1387C741630BE508D2
:10097000938707436302F50CB70702401387474488
:100980006307E50C13878745630AE50C1387C746A1
:10099000630EE50C138707486302E50E13870749CA
:1009A0006306E50E1387074A6309E50E1387074BB5
:1009B000630CE50E1387074C630CE5048280D84373
:1009C0001367070FD8C38280D8431367F700D8C3D3
:1009D0008280D843B7060F00558FD8C38280D84392
:1009E0008566938606F0558FD8C38280D843BD664E
:1009F000558FD8C38280D843B706F000558FD8C32F
:100A0000828003A747401367070F23A2E740828035
:100A100003A7474DBD66558F23AAE74C8280D84374
:100A2000B706000F558FD8C3828003A747401367CE
:100A3000F70023A2E7408280B707024003A74740A0
:100A40008566938606F0558F23A2E740828003A730
:100A50004740BD66558F23A2E740828003A74740E9
:100A6000B7060F00558F23A2E740828003A74740B7
:100A7000B706F000558F23A2E740828003A74740C6
:100A8000B706000F558F23A2E740828003A7474D8A
:100A90001367F70023AAE74C828003A7474D13672B
:100AA000070F23AAE74C828003A7474D85669386EC
:100AB00006F0558F23AAE74C828090519C459449BB
:100AC000D84983A88501D18FD58FD04DD451D98FE6
:100AD000B3E71701184103A88502D18FD58FE176BE
:100AE000BD06D045758FB3E707019441D98F1CC16E
:100AF000DC4150C114C55CC582801C4189C593E7A7
:100B000017001CC1828041677917F98F1CC1828050
:100B10004CC182804841420541818280944593F7CF
:100B2000060113F6F60099C3DC415D8E9E2113F792
:100B3000F70F39CB184193058004638AB61A9305E1
:100B400080026381B63A93F51700639E053093F5F2
:100B50002700639C053293F547006395053693F5AE
:100B60008700639A053493F50701639E053293F578
:100B700007026392053293F507046390053093F5FD
:100B800007086395052E18C11307F00F6370F70C63
:100B9000584193058004639CB60A93F6071091C6EA
:100BA000419B93060010518F14C993F6072089CA00
:100BB000931646001377F7F0558F9306002014C95B
:100BC00093F6074099CAFD769386F60F758F9316B4
:100BD0008600558F9306004014C98566938606806B
:100BE000B3F5D70081C9C575FD156D8F9315C60086
:100BF0004D8F14C99396370163DB0600B706F1FFEA
:100C0000FD16758F93160601558F856614C9939648
:100C1000270163DB0600B70610FFFD16758F9316DC
:100C20004601558F896614C99396170163DB060048
:100C3000B70600F1FD16758F93168601558F9166E4
:100C400014C9C207C18763C7072858C182809305AA
:100C50008002638AB61493F6071099C2419B518FA4
:100C600093F6072091C61377F7F093164600558F39
:100C700093F6074081CAFD769386F60F758F93161B
:100C80008600558F9396470163D80600C576FD16FA
:100C9000758F9316C600558F9396370163D906005A
:100CA000B706F1FFFD16758F93160601558F9396C3
:100CB000270163D90600B70610FFFD16758F93163E
:100CC0004601558F9396170163D90600B70600F1C8
:100CD000FD16758F93168601558FC207C187E3D61F
:100CE00007F6120711837206518F58C185B793F525
:100CF000170089C5419B8545518F0CC993F5270085
:100D000081C9931546001377F7F04D8F89450CC9BB
:100D100093F5470091C9FD759385F50F6D8F931578
:100D200086004D8F91450CC993F5870089C9C5751B
:100D3000FD156D8F9315C6004D8FA1450CC993F518
:100D4000070191C9B705F1FFFD156D8F93150601D8
:100D50004D8FC1450CC993F5070299C9B70510FF1E
:100D6000FD156D8F931546014D8F930500020CC93B
:100D700093F5070499C9B70500F1FD156D8F93151B
:100D800086014D8F930500040CC993F50708E38C89
:100D900005DE12079315C60111834D8F93050008D8
:100DA0000CC918C1D5B393F6071091C6419B9306A1
:100DB0000010518F54C993F6072089CA9316460034
:100DC0001377F7F0558F9306002054C993F6074028
:100DD00099CAFD769386F60F758F93168600558F08
:100DE0009306004054C9856693860680B3F5D70004
:100DF00081C9C575FD156D8F9315C6004D8F54C9FA
:100E00009396370163DB0600B706F1FFFD16758F79
:100E100093160601558F856654C99396270163DBA7
:100E20000600B70610FFFD16758F93164601558F05
:100E3000896654C99396170163DB0600B70600F173
:100E4000FD16758F93168601558F916654C9C2079A
:100E5000C187E3DC07DE120711837206A167518F99
:100E60005CC958C1E5B3419B518FD5B112071183BD
:100E70009315C6014D8F18C101BBB70500F1FD15D3
:100E80006D8F931586014D8FDDB91377F7F09315AC
:100E900046004D8FC9B1B70510FFFD156D8F931535
:100EA00046014D8FC9B9B705F1FFFD156D8F93153B
:100EB00006014D8F6DB9C575FD156D8F9315C60073
:100EC0004D8F55B1FD759385F50F6D8F9315860088
:100ED0004D8F71B1120711837206A167518F1CC922
:100EE00058C1ADB393F5170089C5419B8545518F16
:100EF0004CC993F5270081C9931546001377F7F085
:100F00004D8F89454CC993F5470091C9FD7593856F
:100F1000F50F6D8F931586004D8F91454CC993F554
:100F2000870089C9C575FD156D8F9315C6004D8F56
:100F3000A1454CC993F5070191C9B705F1FFFD150E
:100F40006D8F931506014D8FC1454CC993F507026E
:100F500099C9B70510FFFD156D8F931546014D8F8B
:100F6000930500024CC993F5070499C9B70500F130
:100F7000FD156D8F931586014D8F930500044CC9A7
:100F800093F50708E38105C012079315C601118385
:100F90004D8F930500084CC918C1FDB608456D8DED
:100FA0003335A00082800CC98280B767002023A05F
:100FB000A74E8280371702405C439146B18B638411
:100FC000D706A1466387D706B7177A00938707200D
:100FD0001CC137160240544237070020130707018F
:100FE0009182BD8ABA969422B3D7D7005CC154428D
:100FF000A1829D8ABA969422B3D6D70014C55442D2
:10100000AD829D8A36971823B3D7E7005CC5584256
:101010003983937637001387418036971823B3D7E7
:10102000E7021CC98280B727B700938707B01CC1AD
:101030004DB75C43B7F6FF1F584383A6C6704166A1
:10104000C983BD8B718F139616018907635F0602F2
:1010500089466389D70CBD466389D70CC146639D19
:10106000D70A8146BD4705EB374702400327078073
:10107000418B2DCB37177A0013070720B387E70280
:101080001CC1A1DA85831CC1A9B745468146E39CF2
:10109000C7FCC94771DBB7150240D8551316F700D6
:1010A000D8556359060411833D8B3726B7000507D1
:1010B000130606B03356E60210C1D85521833D8B86
:1010C00039C785456306B706BD45630AB7060907F4
:1010D0003307C7023716024050563D8A050633577C
:1010E000C70215A037173D0013070790B387E70223
:1010F0001CC141BF3D8B130617003727B7001307EC
:1011000007B03357C702B387E7021CC19DBF13174F
:101110002600329705837DBFC5466397D702814677
:10112000C14791B78146C947B5B78546B54725BF81
:101130001317160032970E073297058361BF1317F6
:10114000260032970A0779B7814631BF99C537170C
:1011500002405C4B5D8D48CB8280B7170240D84B74
:101160001345F5FF798DC8CB828099C537170240AA
:101170001C4F5D8D08CF8280B7170240984F1345F2
:10118000F5FF798D88CF828099C5371702405C4F73
:101190005D8D48CF8280B7170240D84F1345F5FFC9
:1011A000798DC8CF8280B7170240D857B70600F9AB
:1011B000FD16758FD8D7D8576205598DC8D782804C
:1011C000B7170240D857B70600F8FD16758FD8D765
:1011D000D8576E05598DC8D78280B7170240D857A7
:1011E000B70600D0FD16758FD8D7D8577205598D20
:1011F000C8D7828009C9371702405C57B70600403C
:10120000D58F5CD78280B7160240DC56370700C006
:101210007D17F98FDCD68280371702405C577E0538
:10122000860785835CD75C575D8D48D78280EFF257
:101230002F801629FA21F577FD17F58FD98FDA253A
:101240001EA92A844A25AE84FD77CE219224938755
:10125000379FB624E98FCD8FD18FD58F5EA45E28BE
:1012600001116800C207C18393F7F7CFD98F5EA839
:101270009133B7470140938707806308F4085247CA
:10128000562493171700BA97C2068E07C186BA97DD
:10129000984063CE06020A07B3D7E7021307400659
:1012A000522442064186B3D6E702B3F7E70292061C
:1012B000634E0602920793872703B3D7E702BD8BDD
:1012C000D58FC207C1831EA405616FE0BFF8060772
:1012D000B3D7E70213074006522442064186B3D62D
:1012E000E702B3F7E7029206E35606FC8E07938700
:1012F0002703B3D7E70213F77700B367D700C20716
:10130000C1831EA405616FE0FFF4624795BF91C5DC
:101310005E250967D98F5EA582805A25F977FD176A
:10132000F98F5EA582805E2901C6DD8D4EA982807F
:1013300093C5F5FFFD8D4EA9828093F5F51F4EA153
:1013400082800A216D8D3335A000828093C5F5FF20
:10135000C205C1810EA18280B707002083A70708BC
:1013600037177A0013070720B3D7E7021307803E29
:10137000B766002093F7F70F3387E7022383F64E13
:10138000B76700202392E74E828032858280938760
:101390008180944337770020130747A83695636B05
:1013A000E50037870020130707806365A70088C31F
:1013B00036858280FD5636858280EFE27FE41821F3
:1013C000FD4679711346070863F1C60298A1F546F8
:1013D0002E89138C150063E0E67AA1660A079386CE
:1013E000866A369718432A8D0287EF10B006AA84C2
:1013F000268545616FE09FE4A380050018311389BD
:101400002500854B930525009309F7FF8544630567
:101410000778371C0140896A7D5B15A023A85C0111
:101420004A86A285EF20B0166394090023A85C01C8
:101430008504B3054401D294FD19638F6975882131
:1014400013841500214A9377F50389C7138A77001F
:10145000135A3A0093178501E187930C0CC0E3DF20
:1014600007FA23AA5C014A86A285EF2050126394F2
:10147000090023A85C0185045299D29BA2856DBF07
:10148000376700201307C77110238946631AD67483
:101490001C31342F3CBF63F5D7743945EF10B04F82
:1014A000EF101009935685001357050193578501D6
:1014B000B7040200A30009002301A900A301D90079
:1014C0002302E900A302F90099041DB71831B76996
:1014D00000209389C971238DE9006305071030212D
:1014E000854623920902238EC9006314D7006F102A
:1014F000A038343189452393C902A38ED900B2960E
:10150000630AB7064C212394D9020D45238FB900F5
:10151000AE966301A70683455D0011452395D90268
:10152000A38FB900AE966307A70483456D001545E8
:101530002396D9022380B902AE96630DA702834594
:101540007D0019452397D902A380B902AE966303A3
:10155000A70283458D001D452398D9022381B90236
:10156000AE966309A70083479D002399D902A38102
:10157000F902BE9683C7D901918E239AD9029D8E16
:10158000239BD9028947630FF70403C6E9018D47FE
:10159000918E239CD9026307F70403C6F901914792
:1015A000918E239DD902630FF70203C60902954766
:1015B000918E239ED9026307F70203C61902994749
:1015C000918E239FD902630FF70003C629029D471E
:1015D000918E2390D9046307F70083C739029D8E4B
:1015E0002391D90493041700C204C16793E4140043
:1015F0008507A3000900BE94E5BB376700201307E9
:10160000C771142305466394C6006F00D07909465C
:101610006395C6701431302F34BF63F0C670214516
:10162000EF10703783463D0003462D0003474D0001
:1016300003455D0093978600B3E6C7009317070143
:10164000D58F62055D8DB7040600EF101008890480
:10165000A300090071BBB76900209389C97183CACF
:1016600009000547E38BEA660947E38DEA56A38044
:10167000050023810500A38105000D4C03474D00A3
:10168000098B6304076AB7040400336C9C00C164CF
:101690008504E294B1BB3421103138315C21A206BB
:1016A000D18E4207558FE207D98F6385076A3717B6
:1016B0007A001307F71F6364F7006F007073B76752
:1016C00000209387C771054798B30547D8C3B7046F
:1016D0000500A3000900890421BBC1642381050022
:1016E000A38005008D0429B3382114319317870096
:1016F00033E7D70093171700BA978A07998F3ED21E
:101700009257FD173ED2EDFFB7040300A300090076
:101710008904F9B9B767002085451145238E077004
:1017200002D202D402D69134854521453D3C8545FF
:101730004145253C91440D44930700044C10371556
:101740000140B71901402312F10226D622D4EFF04E
:10175000EFBC89674C10138509C02312F10226D60D
:1017600022D4EFF0AFBB930700024C101305000228
:101770002312F10226D622D4EFF04FBA85674C101F
:10178000138509C02312F10226D622D4EFF00FB937
:10179000E1774C10138509C02312F10226D622D41A
:1017A000EFF0CFB791674C10138509C02312F102F7
:1017B00026D622D4EFF08FB69307001026D64C1011
:1017C00037150140C1642312F10222D48904EFF0DD
:1017D000EFB4A300090029B90031630F0442854723
:1017E000630CF4428947631EF456B76700208545B1
:1017F0001145238E877002D202D402D6BD328545B0
:101800002145A532854541458D328D44414A930796
:1018100000044C10371501402312F10252D626D491
:10182000EFF0CFAF9305000437150140EFF0AFF7AD
:10183000B719014089674C10138509C02312F102C2
:1018400052D626D4EFF08FAD8965138509C0EFF02D
:101850008FF5930700024C10130500022312F102CA
:10186000930780043ED626D4EFF04FAB85674C102B
:10187000138509C02312F10252D626D4EFF00FAA25
:101880008565138509C0EFF00FF2E1774C101385E1
:1018900009C02312F10252D626D4EFF02FA8A16579
:1018A000138509C0EFF02FF091674C10138509C024
:1018B0002312F10291473ED626D4EFF02FA64C100A
:1018C00037150140930700102312F10252D626D497
:1018D000EFF0CFA49305001037150140EFF0AFEC07
:1018E000B7040200A3008900890419B618316309FE
:1018F000073085466306D730FD57B70403009CB117
:101900008904FDB41C311307000FE384E75C6365B1
:10191000F72A0D47E38BE75C1147639BE72C93871E
:10192000018488238C33B023B433D823DC33B70449
:1019300002002301A900A303F9009947A301B900FC
:101940002302C900A302D9002303E900A104A300D4
:10195000F90079BCB76900209389C97183C7090070
:101960009306150005473ECA36CE6385E7760947DC
:10197000638BE73E38211304350009EB6F00704597
:10198000C18B89EB05047D17E30507441C2093F602
:101990002700FDF61504C5BF1C313767002013076B
:1019A000C77193F6370089838506858B14AF1CBFFA
:1019B000B7040200A380050089041DBC083193050B
:1019C0002D0063030538930475008D808504C204DF
:1019D000C16793E414008507BE94EF20A034A300F0
:1019E000090039B4A38005001831138925001304B8
:1019F0002500930AF7FF054B85446307071AFD5B33
:101A00003DA09D0993D93900138C19005285620AB3
:101A1000A2854A86135A8A41EF1060244E94E294BC
:101A200063540A004E994E9BFD1A638F7A17034A3E
:101A3000040005049379FA03E39509FC254CA149B8
:101A4000F1B71431376700201307C77154A7343139
:101A50003021B7040600A206D18E16AB54315021B6
:101A6000890493978600D18F3EABA380050049B2CD
:101A70004021303158318349250074212204518C92
:101A80004207418F13FB1900139486010431598CCE
:101A9000630B0B0093F71400E3840738B71701407A
:101AA0001307000498CB13FA2900630B0A0093F77D
:101AB0002400E38E0736B7170140056723A8E7C067
:101AC00093FA4900638C0A0093D72400858BE3873F
:101AD0000736B7170140216723A8E7C0939B890108
:101AE00093DB8B4163C00B0A39C493D6140013D621
:101AF000240093D7540013D77400E3080B34E39306
:101B0000075EE31F0A56B716014063C40B006F104F
:101B10006002DC469983858BE39DF4FE63880A00AE
:101B200083A7C6C0BD83858BE315F6FEDC46A18383
:101B3000858BE310F7FE3717014050478327C7C056
:101B40008325C7C0832687C0AD835847B581898B5D
:101B500091891982CD8F058AAD82D18FA18A0583A3
:101B6000D58F13770708D98FB7040700A300F900B2
:101B700089046FF0FF87FD57C1642300F9008504D5
:101B80006FF01F8793D77400E384073AB7170140BB
:101B90001307001098CB89BFC204C167B3E4740176
:101BA0008507BE946FF0DF84C204C167B3E46401AB
:101BB0008507BE946FF0DF831307E00FE381E73002
:101BC0001307F00F6396E7028947BCB12381050034
:101BD000B704020089479104A300F9006FF05F8108
:101BE000FD57B7040200A300F90089046FF05F807D
:101BF000B704020081478904A300F9006FF04FFF8A
:101C000083472D00858B6387077CB7170140130737
:101C1000001023AAE780CDBC0547B76700208545A3
:101C20001145238EE77002D202D402D6EFF0EFD333
:101C300085452145EFF06FD385454145EFF0EFD263
:101C40008D44C149930700044C10371501402312FD
:101C5000F1024ED626D4EFE07FEC93050004371551
:101C6000014037140140EFF00FB48967130504C039
:101C70004C102312F1024ED626D4EFE03FEA1305B2
:101C800004C08965EFF02FB2930700024C101305D2
:101C900000022312F102930780043ED626D4EFE01F
:101CA000FFE78567130504C04C102312F1024ED6DE
:101CB00026D4EFE0BFE6130504C08565EFF0AFAEB4
:101CC000E177130504C04C102312F1024ED626D43E
:101CD000EFE0DFE4130504C0A165EFF0CFAC91673E
:101CE000130504C04C102312F10291473ED626D4AE
:101CF000EFE0DFE2930700104C103715014023128C
:101D0000F1024ED626D4EFE07FE19305001037159F
:101D10000140EFF04FA90544E1B6FD57B7040600B6
:101D2000A300F90089046FF0AFEC83443D008347C2
:101D30002D00A204DD8C8504CA04C167B3E48401CC
:101D40008507BE946FF0CFEAB7042200890413051B
:101D5000001061B1FD57B70405009CB189046FF014
:101D60002FE90144B5BE1831B764002083C6A9012C
:101D70009384744E9387350023800400A38DE9007B
:101D80003EC8E378D722834B250013043500E38F48
:101D90000B58814D0146014B894A034A04009307C1
:101DA00014003EC4937C1A0093772A00A90C638325
:101DB000071463070B1603DD09016396CC00137744
:101DC0000A01630F0710A947630EF6002945EF10BB
:101DD000803C09A863030D2898207D1D1377F70F19
:101DE000E314070C4C103945EF108078AA86E30302
:101DF00055FF2946014B8547E39FF60AC248925793
:101E000013770A019386480013D8870013D507017A
:101E100093D587012380F800A38008012381A800BF
:101E2000A381B80036C863110710224463070B264C
:101E30009C20850D93F7F70FE3960730FD1BE39E7B
:101E40000BF493FDFD0FA9476305F6002945EF103C
:101E5000803483D90901E3030B40130A4102894A04
:101E600009A8E38309429C20FD1993F7F70FE39D2E
:101E70000740D2853945EF10A06FE30455FF0547B1
:101E8000EE876315E502C24612579106B68436C83E
:101E9000935587001356070193568701238EE4FE5E
:101EA000A38EB4FE238FC4FEA38FD4FE7247A3007B
:101EB000F900C167B304E4404247C2048507330C0C
:101EC0008741B3E484012301A900BE946FF04FD28F
:101ED00063030D7E98207D1D1377F70F631D077C2C
:101EE0004C10528532C6EF10A068AA863246E30134
:101EF00055FF11B763140B1034200C3038305C20C0
:101F0000A206CD8E4207558FE207D98F3ED21377B6
:101F10000A0215046306071423AAF900014B09BF3E
:101F200093770A01638B071638200C303C3054201D
:101F300022074D8FC207D98F13978601D98F3EC6CE
:101F4000930754003EC403D429016385CC00668501
:101F5000EF10602403DD090101A863060D069C2033
:101F60007D1D93F7F70FA5E381455285EF10406083
:101F7000AA86E30455FF85476317F50403DD0901CD
:101F800001A863010D069C207D1D93F7F70FA5E7BF
:101F90004C105285EF10C05DAA86E30455FF83A75D
:101FA000490112570546F98F6310C5043247630093
:101FB000F71211C49C207D1493F7F70FE1D313653A
:101FC00005019376F50F6686224439A0C18B89EB13
:101FD0000504FD1B63870B761C2013F727007DF794
:101FE0001504C5BF1257524583A749017D8FB247DB
:101FF000E397E7FCC9BF52451257FDB7A9476305F0
:10200000F6002945EF10201903DD090101A8630737
:102010000D049C207D1D93F7F70FA9E34C10394563
:10202000EF100055AA86E30455FF85476318F502B3
:1020300042479257294611073A853AC893D58700F7
:1020400093D6070113D78701230EF5FEA30EB5FE25
:10205000230FD5FEA30FE5FE45B5014BA94CA5B74F
:102060006385CC006685EF10001303DB090109A826
:1020700063050B649C207D1B93F7F70F6397076A3A
:102080004C105285EF10C04EAA86E30355FF8547DA
:10209000631DF5686686014B61BB6385CC00668570
:1020A000EF10600F03D4090109A8630C045E9C20A3
:1020B0007D1493F7F70F6396075E81455285EF1005
:1020C000204B2A8BE30355FF8547E312F52A6686EA
:1020D0002244B9BBB7640020834B25009384744E1F
:1020E00093873500238004003EC813043500E38B3A
:1020F0000B2202CC014502C4014B894A054D034A1B
:102100000400930714003EC693772A0063860714E1
:1021100083DD0901EE87630E0B0493771A01639B3D
:10212000A70129AA63870D229C20FD1D93F7F70FB5
:10213000639107224C103945EF105053E30455FFCB
:10214000014B6318A50D424792571107BA8513D664
:10215000870093D607013AC813D78701238EF5FE6F
:10216000A38EC5FE238FD5FEA38FE5FE83D709017D
:10217000BE8D93760A0113761A00638A0614834C87
:102180002400083034304C20A20CB3ECAC00130710
:102190005400C206B3E696013AC6939C8501B3EC9F
:1021A000DC0003D4290105C609A8FD1DFD57638283
:1021B000FD069C2093F7F70FA9EF81455285EF109C
:1021C000F04AE30455FF6316A50583D70901BE8DC8
:1021D00001A8638C0D069820FD1D1377F70F35E7D6
:1021E0004C105285EF109048AA86E30455FF83A750
:1021F00049011257F98F631BA505638DFC0C11C4AF
:102200009C207D1493F7F70FE9D313E506011375AE
:10221000F50F324439A0C18B89EB0504FD1B638E99
:102220000B061C2013F727007DF71504C5BFE382BA
:102230000DFE9C20FD1D93F7F70FE1FF4C1052851A
:10224000EF10D042E30555FFEDBD125783A74901BA
:102250007D8FE39CECFA75BF631F0B0E34201030AA
:1022600038305C20A206D18E4207558FE207D98F05
:102270003ED213770A0215046306071223AAF90057
:10228000014B054522479C2005073AC493F7F70FF9
:1022900063900714FD1BE3940BE68547630DF54A35
:1022A0009377F50F3ECAF247B304F440C247C20425
:1022B000338C8741A247B3E48401A300F900D247DD
:1022C0002301F900C1678507BE946FF06F9211CEAC
:1022D00063040B06324402CC75B7FD1DFD57E38A3B
:1022E000FDF29C2093F7F70F8DF74C105285EF10FD
:1022F000F037E30455FFE31EA5F1424792573244FD
:102300009305470013D6870093D6070113D787019B
:102310002EC8238EF5FEA38EC5FE238FD5FEA38F78
:10232000E5FE02CC85B7FD1DFD57E384FDEE9C2044
:1023300093F7F70FE39F07EC81455285EF101033B9
:10234000E30355FFE317A5ED02CC054B32441DBF57
:1023500022C6014B7DBD83DC090109A8E38B0CEA91
:102360009C20FD1C93F7F70FE39507EA4C103945C5
:10237000EF10D02FE30455FFE31DA5E94247925724
:102380001107BA853AC813D6870093D6070113D729
:102390008701238EF5FEA38EC5FE238FD5FEA38F66
:1023A000E5FE6DBD03DB090101A863030B029C2060
:1023B0007D1B93F7F70FC9FF4C105285EF10102BC0
:1023C000E30555FFE316A5F985473ECC014B5DBDFE
:1023D00022C681B5B71701401307001023A8E78074
:1023E0006FF08FB21831B764002083C6A9019384BF
:1023F000744E23800400A38DE900138B450063789D
:10240000D72A834D35003821A20DB3E7ED003EC633
:10241000638F0728834B450093F71B00A9073E8570
:102420003EC8EF00505713F72B00DE8C631F075098
:1024300013045D0002C4130A4102894C14300C20BD
:1024400030203830A206CD8E4206558E6207518F5D
:1024500083DD09013AD2110401A8638F0D0498208D
:10246000FD1D1377F70F29EBD2855E85EF10401025
:10247000E30595FF85476313F56EB2472247FD17C5
:1024800005073EC63AC4DDFBC24729476385E7001E
:102490002945EF00505003D40901894939A009CCDE
:1024A00098207D141377F70F01EB81453945EF1024
:1024B000200CAA8AE30535FFA24713D787001377BC
:1024C000F70F93F7F70FA300F9002301E900A30129
:1024D0005901330C8B416FF06F9A3C313821B7644E
:1024E0000020A2079384744ED98F238004003EC637
:1024F000938B45006385072C034B450003D70901E7
:1025000093762B006391062C1304550002C4130A22
:102510004102894C0C30082030203430A205C98D8E
:1025200042064D8EE206D18E36D21104BA8D01A834
:10253000638A0D049420FD1D93F6F60FA1E6D28563
:102540005A85EF10B012AA8AE30495FF8547631BF2
:10255000F502B2472247FD1705073AC43EC603D726
:102560000901CDFB3A84894939A009CC98207D1412
:102570001377F70F01EB81453945EF10300FAA8A29
:10258000E30535FFA24713D7870093FDF70F1377B5
:10259000F70FA300B9012301E900A3015901338C0E
:1025A0008B416FF0AF8D3431302158215C31A20660
:1025B000D18E4207558FE207D98F4C100145B704E1
:1025C00006003ED28904EF10700AA30009006FE0F4
:1025D0003FE2F247A300090023010900B304F440DD
:1025E000C204C16793E424008507BE946FE05FE0F6
:1025F0003727F4001307F73F3E97B357F702B76941
:1026000000209389C971A380090089460547638525
:10261000D7000D4733D7E70223A2E9006FF02F8BD5
:10262000B717014013070004D8CB6FF0CFC7B71717
:102630000140056723AAE7C06FF08FC8B7170140B4
:10264000216723AAE7C06FF06FC96399072A63D592
:102650000B48B715014063980A023716014063081A
:102660000A008327C6C0B183858BE39AF6FE5C46D9
:10267000A183858B6301F7CCDDB783A7C5C0B18388
:10268000858B6384F600E31A0AFE83A7C5C0BD8369
:10269000858BE31AF6FEDC45A183858B630DF7C8B5
:1026A000DDB78946014B05B2A94C014B29BA814AD5
:1026B0000147814709BDB28C39B222C429B2A14772
:1026C000BCA1B704020085478D04A300F9006FE0A8
:1026D0003FD2CD47BCA18547BCB1B70402008947B2
:1026E0009104A300F9006FE0BFD0B7F7FF1F03A765
:1026F000077F83A6C77E03A6877E13842500B78540
:102700000000938505722285EF4030232285EF403B
:10271000302793071500B704020093F7F70F8904D9
:10272000BE94A300F9006FE0BFCC22C4014B61B896
:10273000B717014013070010D8CBEF20A0206FF08F
:10274000AFBA93F7FD0F0547BE8D13F5F60F639FE4
:10275000E6F46FF04FEF630D0B2883DA0901130ADB
:102760004102894909A8E3800AB49C20FD1A93F725
:10277000F70FE39A07B2D2853945EF10206F2ACAC6
:10278000E30335FF8547E310F5B24247925711073F
:10279000BA853AC813D6870093D6070113D78701A5
:1027A000238EF5FEA38EC5FE238FD5FEA38FE5FEF7
:1027B000DDBC13042500814701456FF02FEF814AEE
:1027C0000147814DF9B393761B009DC63A84094AAF
:1027D00009A86307042A98207D141377F70F631163
:1027E000072A81455A85EF106068E30445FF0547D5
:1027F0006313E53803D70901B24702C4130A410243
:102800001384F7FF894C39C8BA8D01A8638D0D0474
:102810009420FD1D93F6F60FB9E6D2855A85EF1088
:10282000E064E30595FF8547631BF5341257A24723
:10283000910B13568700935607018507238EEBFEF5
:1028400061833EC4A38ECBFE238FDBFEA38FEBFE02
:10285000E30B04D27D1403D709015DF493761B00CA
:10286000C5D6394B55B7A247894A13D7870093FD80
:10287000F70F1377F70F31BB239A09026FE09FD64A
:10288000B715014063970A02371601405C469983E9
:10289000858BE39DF4FE8327C6C0B183858BE397C8
:1028A000F6FE63DA0BA85C46A183858B6305F7A867
:1028B000F1BFDC459983858BE39DF4FE138505C04C
:1028C0005C45B183858BE396F6FE5C45BD83858BC5
:1028D000E311F6FE63D10BA6DC45A183858B630C67
:1028E000F7A4C1BFB717014063820A1663150A0037
:1028F000D847D847F5BFD847D847F5BF93F709025F
:1029000063130A12B715014063D10B0263880A00F2
:1029100083A6C5C0BD82858AE31AD6FEE5FBD445F1
:10292000A182858A6309D7A0D5B7B716014063880D
:102930000A0003A7C6C03D83058BE31AE6FEE5FB4C
:102940006FF06F9F85466FF02FE903DA09010944A4
:1029500001A863070A0C98207D1A1377F70F69E323
:1029600081455E85EF00D040E30585FE054763188D
:10297000E50AB24702C4130A4102938DF7FF894B5F
:10298000638F0D0403D4090109A8E30704B298205A
:102990007D141377F70FE31107B2D2856685EF0038
:1029A000303DE30475FF8547631AF51A1257A247B5
:1029B000110B13568700935607018507230EEBFE74
:1029C0006183A30FEBFE3EC4A30ECBFE230FDBFE01
:1029D0001387FDFF638A0D0EBA8DE3950DFAC2478A
:1029E0002947B94CE380E7FA2945EF00C07A59BF7F
:1029F000E247E38A078A83D90901094A09A8E384DF
:102A0000098A9C20FD1993F7F70FE39E07888145FB
:102A10003945EF10A0452ACAE30345FF69B0AA8AE9
:102A2000014781474DB463950A06B715014003A6D7
:102A3000C5C03182058AE39CC6FEF5FB63DD0B8EC3
:102A4000D0452182058A6308C78ED5B763150A0071
:102A5000D847D847F5BFD847D847F5BF094A01A896
:102A6000638D09009C20FD1993F7F70F99E78145C5
:102A70003945EF00F02FE30545FFEE876FF00FC3F8
:102A8000894A0147814D31B6EE8752456FF00FC23A
:102A900037180140130508C04C45B1818589E39B77
:102AA000B6FE4C45BD818589E316B6FEE5F763C4E5
:102AB0000B006FF04F888325C800A18185896314BE
:102AC000B7006FF04F87F9B713D787001377F70F69
:102AD00093F7F70F854AC5BAB715014063110A028B
:102AE0003717014063940A006FF0EF848327C7C053
:102AF000BD83858B6314F6006FF0EF83E5B783A782
:102B0000C5C0B183858BE39CF6FE63940A006FF029
:102B10008F8283A7C5C0BD83858B6314F6006FF0D9
:102B20008F81F1BF02C402CA6FF0EFF70145814700
:102B30006FF0CFB7371701405C479983858BE39DD2
:102B4000F4FE63940A006FE01FFF8327C7C0BD83B4
:102B5000858B6314F6006FE01FFEF9BFA247AA8AB7
:102B600013D787001377F70F93F7F70FA9BAAA8641
:102B7000014B6FF04FC5AA8A0147814D19BCA2478E
:102B8000AA8A13D7870093FDF70F1377F70F11B4B5
:102B9000EFD26FE81C219306F0076388D700EFE0BF
:102BA000DF81AA894E856FD04FEA9CA11C31B709FD
:102BB0000200130425009CB1138925009384F7FFBC
:102BC0008909EDD3416A7D1AFD5ACA852285EFE055
:102BD000CFFE13570501B3774501FD14AA993A9426
:102BE0003E99E39454FF4E856FD02FE6EFD24FE429
:102BF000B76700209387C7711307400698CB054736
:102C000041119AAF85451547114523900700D8C358
:102C10002386070023AA0700238D070002C202C4EF
:102C200002C6EFE08FD493070010371401407C8276
:102C3000C1474C00130504803EC68D473EC4EFD00B
:102C4000FFED930700102328F48013040480410152
:102C50006FD04FE01C21416505059CA18280EFD219
:102C60002FDD137EF5034111328463140E00130E21
:102C7000000493770504DDC7B7170140056723A853
:102C8000E7C037660020937305081306C67137182E
:102C90000140A162930F0004130F00049D448505B9
:102CA00083C8F5FF03234600F2860145611EB38EFB
:102CB000D44093F71800B1CB232858C0232AE80149
:102CC0001AC6B247FD173EC6EDFF832788C02328EA
:102CD000F8011AC4B98313F71700A247FD173EC4C1
:102CE000EDFF9317770005813387DE00FD1693D83B
:102CF00018005D8D638EC601CDFEB357E50063837A
:102D000003001CA041016FD0EFD4232A58C07DB727
:102D100063950300E3150EF8F5B708A00504E3106A
:102D20000EF8CDB7B7170140056723AAE7C091BFDA
:102D3000376700201307C7714C43B717014005667A
:102D400023A8C7C0930600043971D4CB2ECAD2473A
:102D5000FD173ECAEDFFB71701409306000494CB60
:102D60002EC8C247FD173EC8EDFFB71701400566E4
:102D700023AAC7C093060004D4CB2EC6B247FD17C2
:102D80003EC6EDFFB71701409306000494CB2EC456
:102D9000A247FD173EC4EDFFB7170140930600049C
:102DA000D4CB2EC29247FD173EC2EDFFB7170140AC
:102DB0009306000494CB2EC08247FD173EC0EDFF62
:102DC000383F0DC7B7160140130500041306000471
:102DD000D0CA2ECEF247FD173ECEEDFF88CA2ECCCC
:102DE000E247FD173ECCEDFF7D177DF37D460145A3
:102DF000B7160140930800041308000423AA060133
:102E00002ED29257FD173ED2EDFF03A786C023A80E
:102E100016012ED09357E70013F717008257FD17BE
:102E20003ED0EDFF9317F701C98F7D1613D517001C
:102E300071F6B7170140856623A8D7C013070004B1
:102E4000D8CB2EDEF257FD173EDEEDFF37170140DF
:102E5000832787C09306000414CBB98313F71700A8
:102E60002EDCE257FD173EDCEDFF9317F7019306CA
:102E700000043717014054CB5D8D2EDAD257FD1771
:102E80003EDAEDFFB71701401307000498CB2ED8A8
:102E9000C257FD173ED8EDFFB7170140856623AA3C
:102EA000D7C013070004D8CB2ED6B257FD173ED695
:102EB000EDFFB71701401307000498CB2ED4A2579B
:102EC000FD173ED4EDFF21618280B7650020938518
:102ED000C571D841B7170140056623A8C7C093063E
:102EE00000045971D4CB3ACAD247FD173ECAEDFF50
:102EF000B71701409306000494CB3AC8C247FD17A8
:102F00003EC8EDFFB7170140056623AAC7C0930668
:102F10000004D4CB3AC6B247FD173EC6EDFFB71743
:102F200001409306000494CB3AC4A247FD173EC467
:102F3000EDFFB717014093060004D4CB3AC2924785
:102F4000FD173EC2EDFFB71701409306000494CB76
:102F50003AC08247FD173EC0EDFFB43D3716014031
:102F600093080004130800048DC2232A06013ACEF8
:102F7000F247FD173ECEEDFF232816013ACCE2477B
:102F8000FD173ECCEDFFFD16EDF2B71701402166AF
:102F900023AAC7C093060004D4CB3ADAD257FD1750
:102FA0003EDAEDFFB71701409306000494CB3AD800
:102FB000C257FD173ED8EDFFB71701409306000436
:102FC000D4CB3AD6B257FD173ED6EDFFB717014026
:102FD0009306000494CB3AD4A257FD173ED4EDFFDC
:102FE000B717014093060004D4CB3AD29257FD178D
:102FF0003ED2EDFFB71701409306000494CB3AD0C0
:103000008257FD173ED0EDFF7D46B7160140216384
:1030100093080004130800049377150063870712D0
:1030200023A866C023AA06013ADEF257FD173EDE4A
:10303000EDFF23A816013ADCE257FD173EDCEDFF59
:103040007D16058171FAB42DB03D85470589918EB5
:103050006383F610B717014021667DE923AAC7C034
:10306000B717014013060004D0CBBAC29647FD172C
:10307000BEC2EDFFB71701401306000490CBBAC0E3
:103080008647FD17BEC0EDFFF9163716014013083D
:1030900000041305000485C248CABAC6B647FD1726
:1030A000BEC6EDFF23280601BAC4A647FD17BEC45D
:1030B000EDFFFD16F5F2B7170140056623A8C7C05E
:1030C00093060004D4CBBACAD647FD17BECAEDFF9B
:1030D000B71701409306000494CBBAC8C647FD1742
:1030E000BEC8EDFFD841B717014093060004D4CB0A
:1030F000BAD6B657FD17BED6EDFFB71701409306F7
:10310000000494CBBAD4A657FD17BED4EDFFB71771
:103110000140056623AAC7C093060004D4CBBAD2E7
:103120009657FD17BED2EDFFB71701409306000476
:1031300094CBBAD08657FD17BED0EDFFB71701402C
:10314000216723A8E7C06561828023AA66C0D9BD34
:1031500023A8C7C031B7B71701408566938707C05A
:1031600094CBA1661DE5D4CBB717014093060004AC
:10317000D4CBBACEF647FD17BECEEDFFB717014050
:103180009306000494CBBACCE647FD17BECCEDFF06
:1031900091BF94CBD1BF376700201307C771343F6D
:1031A0000C33938786008607BA97D22B638205106B
:1031B000B7170140856823A817C193050004CCCB3D
:1031C0008CCBCCCB8CCB23AA17C1CCCB8CCBCCCB90
:1031D0008CCB138807C0A1672328F800B7150140DE
:1031E0009307000409C6DCC99CC97D166DFEB307B0
:1031F000D700DC2F371601402168FD179305000426
:10320000D1E3C106860636975E2B05896389072EB2
:1032100037170140A16663150534232AD7C0371735
:1032200001409306000454CB14CBA1662328D7C0D9
:10323000FD17B71601401307000489C7D8CA98CAFA
:10324000FD17EDFFB7170140856623A8D7C0130708
:103250000004D8CB98CBB717014013070004D8CB94
:1032600098CB056623AAC7C0D8CB938607C098CB56
:10327000A1679CCA8280232806C14CCA0CCAFD17CC
:10328000058191CF13731500930806C0E31503FE63
:1032900023AA08014CCA0CCAFD170581E5F7343F83
:1032A0000589C106860636975E2B638A07248DB78B
:1032B0005C43B7150140856823A815C113080004B5
:1032C0001D7123AA0501BEC08645FD15AEC0EDFDEA
:1032D000B71501401308000423A80501BEC2964596
:1032E000FD15AEC2EDFDB71501401308000423AA79
:1032F0000501BEC4A645FD15AEC4EDFDB7150140E0
:103300001308000423A80501BEC6B645FD15AEC6C8
:10331000EDFDB7150140856823AA15C11308000407
:1033200023AA0501BEC8C645FD15AEC8EDFDB715FB
:1033300001401308000423A80501BECAD645FD15A7
:10334000AECAEDFDB71501401308000423AA05011C
:10335000BECCE645FD15AECCEDFDB715014013081A
:10336000000423A80501BECEF645FD15AECEEDFD49
:103370002168B715014023A805C1130300043718BD
:103380000140930800040DC2232A18013EDCE255D7
:10339000FD152EDCEDFD232868003EDEF255FD15FF
:1033A0002EDEEDFD7D166DF23306D700502E7D1614
:1033B00029C2B715014021681303000493080004D3
:1033C00093761500638D061423A805C123AA150161
:1033D0003ED8C256FD1636D8EDFE23A865003EDA6B
:1033E000D256FD1636DAEDFE7D16058171FA343FB0
:1033F0005C43C10686063697562B05893717014070
:1034000063820612216663120516232AC7C0371786
:1034100001401306000450CB3ED422577D173AD406
:103420006DFF371701401306000410CB3ED632570C
:103430007D173AD66DFF2166371701402328C7C094
:10344000FD1637160140130500049305000499CEBC
:103450004CCA3ED002577D173AD06DFF08CA3ED203
:1034600012577D173AD26DFFFD16FDF23717014056
:1034700005662328C7C09306000454CB3ECC6247A0
:103480007D173ACC6DFF371701409306000414CB2B
:103490003ECE72477D173ACE6DFF37170140930637
:1034A000000454CB3EC002477D173AC06DFF37176A
:1034B00001409306000414CB3EC212477D173AC266
:1034C0006DFF371701400566232AC7C09306000425
:1034D00054CB3EC422477D173AC46DFF37170140D5
:1034E0009306000414CB3EC6B247FD173EC6EDFF5F
:1034F000B7170140216723A8E7C025618280B7176D
:1035000001400567938707C098CB216729EDD8CB89
:10351000B717014013070004D8CB98CB2DBB23AAC3
:1035200005C16DB58566130707C014CBA1661DE5FF
:1035300054CB371701409306000454CB3EC8424792
:103540007D173AC86DFF371701409306000414CB6E
:103550003ECA52477D173ACA6DFF81B714CBD1BF1F
:103560002328D7C06DB998CB65B72328C7C045B508
:10357000376800201308C8718348B80183471800D2
:103580004687638E0710B7170140056323A867C0FD
:1035900093060004D4CB94CB23AA67C0D4CB94CB9E
:1035A000D4CB94CBB7160140930700046386080080
:1035B000DCCA9CCA7D176DFF93571500858B6396F7
:1035C0000734B7170140216723AAE7C03717014026
:1035D00013030004232A6700130607C01C469356F2
:1035E000250023286700B583858A13F72700A16784
:1035F000638F063C1CCAB7160140130E000423AAB1
:10360000C601138306C0032683009357350023A801
:10361000C6013982858B058A6387073AA16723280B
:10362000F300B71601401303000423AA660083A722
:1036300086C0854E23A86600B183918BD98F5D8E9D
:10364000630FD62D856723A8F6C023AA660023A89A
:103650006600B717014013070004D8CB98CB8565E7
:1036600023AAB7C0D8CB938607C098CBA1679CCAC2
:103670001375050819C1232408008345C800B7162F
:103680000140130700049387F5FF7D5591C5D8CA03
:1036900098CAFD17E39DA7FE1375F60F8280832756
:1036A0004800B7160140056323A866C0130600044E
:1036B0007171D0CA3ECDEA46FD1636CDEDFEB71685
:1036C00001401306000490CA3ECFFA46FD1636CFDD
:1036D000EDFEB7160140056323AA66C01306000479
:1036E000D0CA3ED18A56FD1636D1EDFEB71601403E
:1036F0001306000490CA3ED39A56FD1636D3EDFE4B
:10370000B716014013060004D0CA3ED5AA56FD16CE
:1037100036D5EDFEB71601401306000490CA3ED719
:10372000BA56FD1636D7EDFE37160140130E0004CB
:103730001303000463820802232A66003EC9CA46B6
:10374000FD1636C9EDFE2328C6013ECBDA46FD162E
:1037500036CBEDFE7D176DF313571500058B630E09
:10376000072437170140A1662328D7C03717014027
:103770009306000454CBBEDC66577D17BADC6DFFA0
:10378000B716014003A786C01306000490CA398308
:10379000058BBEDE76567D16B2DE6DFE9356250095
:1037A000858A131317003717014063840620A1662A
:1037B0002328D7C0371701409306000454CB3EC1DD
:1037C0000A467D1632C16DFE37170140832687C039
:1037D0001306000410CBB982858A3EC31A467D16B3
:1037E00032C36DFE13573500058B6300072E371764
:1037F000014021662328C7C0371701401306000483
:1038000050CB3EC52A467D1632C56DFE37160140A7
:10381000032786C0130E00042328C6013983058BB5
:103820003EC73A467D1632C76DFE0A07336767000A
:10383000D98E0547638FE618371701408565232821
:10384000B7C01306000450CBBED846577D17BAD870
:103850006DFF371701401306000410CBBEDA565730
:103860007D17BADA6DFF371701401306000450CBFD
:103870003EC842477D173AC86DFF3717014013060F
:10388000000410CB3ECA52477D173ACA6DFF371766
:1038900001408565232AB7C01306000450CB3ECCF7
:1038A00062477D173ACC6DFF3717014013060004BD
:1038B00010CB3ECE72477D173ACE6DFF37170140D1
:1038C00021662328C7C01375050819C123240800E1
:1038D0000347C8001306F7FF1DCFB71501401308B3
:1038E000000413050004C8C93EC422477D173AC42A
:1038F0006DFF23A805013EC632477D173AC66DFF0E
:103900001307F6FF09CA3A86F9BFB71701402167C6
:1039100023A8E7C065B913F5F60F4D618280937750
:1039200025006398072A94417D47B7170140A16895
:103930009305000401A823A817C1CCCB8CCB7D171D
:10394000858211CF93FE1600138E07C0E3950EFEFD
:10395000232A1E01CCCB8CCB7D17858265F783474C
:10396000A8018345B8010547858A8D8F638CE736AA
:10397000371701406395062EA166232AD7C0371753
:1039800001409306000454CB14CBF917B71601403D
:103990001307000489C7D8CA98CAFD17EDFFB717E7
:1039A0000140856623A8D7C013070004D8CB98CB65
:1039B0004DB1A166232AD7C0F5BB37170140A166D8
:1039C000232AD7C065B3A167232AF30099B95CCA3B
:1039D0001DB113772500631007108C41FD48371681
:1039E00001402163930E0004130E000413F7150029
:1039F00063040726232866C0232AC601BEC00647E3
:103A00007D17BAC06DFF2328D601BEC216477D17A9
:103A1000BAC26DFFFD188581E39A08FC0346A80130
:103A20008348B8010547858933061641630CE626AD
:103A30003717014063990522A165232AB7C03717BC
:103A40000140930500044CCB3EDC62577D173ADC05
:103A50006DFF37170140930500040CCB3EDE725713
:103A60007D173ADE6DFF7916B71501401303000488
:103A7000930800040DC223AA15013ED842577D17B2
:103A80003AD86DFF23A865003EDA52577D173ADA1F
:103A90006DFF7D166DF23717014085652328B7C08D
:103AA0001306000450CB3ED422577D173AD46DFF45
:103AB000371701401306000410CB3ED6B257FD174E
:103AC0003ED6EDFF8327480079BB371701402166BA
:103AD000232AC7C015B3FD4E0143371E0140930F83
:103AE0000004130F0004232AEE01BED426567D16CF
:103AF000B2D46DFE03278EC02328FE01BED63983C3
:103B0000058B36567D16B2D66DFE7E07336767008D
:103B1000FD1E13531700E3980EFC0347A80105464A
:103B2000B3081741371701406383C8141306000414
:103B300050CBBED006567D16B2D06DFE3716014072
:103B4000032786C0130E00042328C6013983058B82
:103B5000BED216567D16B2D26DFEF918371E014040
:103B6000130F0004930E000463830802232ADE016E
:103B7000BECC66467D16B2CC6DFE2328EE01BECECD
:103B800076467D16B2CE6DFEFD18E39108FE37161F
:103B90000140056E2328C6C193080004232A16019C
:103BA000BEC846467D16B2C86DFE37160140930862
:103BB000000423281601BECA56467D16B2CA6DFE01
:103BC000E38305CA7E073367670098C183274800EF
:103BD00059B9FD46014337170140130F0004930EF6
:103BE0000004232AD701130E07C083278E00FD1679
:103BF0002328D701B983FE07B3E7670013D3170063
:103C0000EDF28346A8018547B3881641638CF80E10
:103C1000232AE70183278E00F9182328E701B983B7
:103C2000858BB71601401307000463870800D8CAC4
:103C300098CAFD18E39D08FE3717014085682328C0
:103C400017C19306000454CB14CBE38405A0FE07F0
:103C5000B3E767009CC1F5BA232A66C071BBA166B1
:103C60002328D7C029BBA1652328B7C0C9BB856855
:103C7000232817C11306000450CBBEC426477D1766
:103C8000BAC46DFF37160140032786C093080004AD
:103C9000232816013983058BBEC636467D16B2C66B
:103CA0006DFE39BF371701400566130707C010CBFB
:103CB0002166ADC510CB371701401306000450CB69
:103CC0003ED002577D173AD06DFF371701401306DB
:103CD000000410CB3ED29257FD173ED2EDFF832752
:103CE000480051B6B71701400567938707C098CBC6
:103CF00021679DC698CBB717014013070004D8CBA6
:103D000098CB81BA85672328FE00232AE701832701
:103D10008E002328E701B983858B05BF50CB61BF97
:103D2000D8CBD1BF25C5B767002003A8077293067B
:103D3000F5FF41110145014737160140856E130E0D
:103D4000000413030004FD5815CD7D15937717006B
:103D50009DC72328D6C1232A660042C6B247FD1755
:103D60003EC6EDFF2328C60142C4A247FD173EC44C
:103D7000EDFFFD160583E39916FD41018280232A9C
:103D8000D6C1D1BF98211D458505C9B782809376DC
:103D9000F503411199E293060004B76E0020938E5B
:103DA000CE719377050803A54E00B5C32148814520
:103DB000B7180140130E00041303000423AA68007F
:103DC0002AC29247FD173EC2EDFF83A7888023A831
:103DD000C8012AC0958313F717008247FD173EC01C
:103DE000EDFF8581931777007D18DD8DFD16630843
:103DF0000800E9F6B3D705011CA2410182800CA29C
:103E00000506E5DE03A54E008145214845BF138E1A
:103E1000150090212147B715014005639308000460
:103E200013080004937716008DCB23A865C023AA3E
:103E300005012AC6B247FD173EC6EDFF23A81501AE
:103E40002AC4A247FD173EC4EDFF7D170582FD166B
:103E500001CBC5D693771600E9FB23AA65C0C1BF85
:103E6000C9DE03460E002147050E6DBF37660020F0
:103E70001306C6711C329376150063830716B717B5
:103E80000140138707C00568232807019308000431
:103E900023AA170123A8170163910646232A0701C5
:103EA000930600043717014054CB9357150014CBE9
:103EB00093F617006381064685662328D7C013084A
:103EC00000043717014093562500232A07012328B1
:103ED000070113F81600B6978566630A084423287D
:103EE000D7C0930600043717014054CB1358350050
:103EF00014CB93761800AA97638706428566232819
:103F0000D7C0371701409306000454CBC29714CB97
:103F1000858B6386074085672328F7C0B717014064
:103F200013070004D8CB98CB856623AAD7C0D8CB7B
:103F300098CB23A8D7C0D8CB142E138807C098CB12
:103F40008967232AF800B6873718014099C6232AC3
:103F5000E8002328E800FD17FDFB37170140130890
:103F60000004232A07018328878023280701232AA6
:103F700007018327878023280701232A07010323BA
:103F800087809183898B135333001373430093D835
:103F90005800B3E7670093F8180023280701B3E738
:103FA000170105486386074D1383E7FF1373D3FF9B
:103FB00093851602371801409308000463070344F1
:103FC000232A180123281801FD15FDF90967232864
:103FD000E8C093F7F70F05672328E8C03E85828085
:103FE0005C42371701408568232817C11308000475
:103FF0003171232A07013EC10A477D173AC16DFF7F
:104000003717014013080004232807013EC31A474D
:104010007D173AC36DFF371701406383063285660B
:104020002328D7C0371701409306000454CB3EC560
:104030002A477D173AC56DFF3717014093060004E4
:1040400014CB3EC73A477D173AC76DFF135715008B
:10405000937617006380062EB7160140056823A8E3
:1040600006C1B71601401308000423AA06013EC981
:10407000CA46FD1636C9EDFEB71601401308000406
:1040800023A806013ECBDA46FD1636CBEDFE93564D
:10409000250013F816003697B71601406302082C66
:1040A000056823A806C1B71601401308000423AA17
:1040B00006013ECDEA46FD1636CDEDFEB7160140AF
:1040C0001308000423A806013ECFFA46FD1636CF9A
:1040D000EDFE13583500937618002A97638C062658
:1040E000B7160140856823A816C1B716014093088A
:1040F000000423AA16013ED18A56FD1636D1EDFEE4
:10410000B71601409308000423A816013ED39A561F
:10411000FD1636D3EDFE4297058B6307072237174E
:10412000014085662328D7C0371701409306000455
:1041300054CB3ED52A577D173AD56DFF371701402E
:104140009306000414CB3ED73A577D173AD76DFF3C
:10415000371701400568232A07C19306000454CB92
:104160003ED94A577D173AD96DFF3717014093065C
:10417000000414CB3EDB5A577D173ADB6DFF37172F
:1041800001400568232807C19306000454CB3EDD97
:104190006A577D173ADD6DFF37170140930600041B
:1041A00014CB3EDF7A577D173ADF6DFF142E096876
:1041B00037170140232A07C1B71801403688130E6C
:1041C00000041303000495C223AA6800BEDC6657EE
:1041D0007D17BADC6DFF23A8C801BEDE76577D17B8
:1041E000BADE6DFF7D18E31108FE37170140130892
:1041F0000004232A0701BED006577D17BAD06DFFF1
:1042000037180140032788809308000423281801E9
:10421000158313731700BED216587D18C2D2E31D42
:1042200008FE3717014013080004232A0701BED4F3
:1042300026587D18C2D4E31D08FE37180140032715
:10424000888093080004232818011583058BBED6A7
:1042500036587D18C2D6E31D08FE930800043718AF
:104260000140232A1801BED89318170046587D181C
:10427000C2D8E31D08FE3718014003278880130EBB
:1042800000042328C8011583058BBEDA56587D1813
:10429000C2DAE31D08FE0A073367170133676700B8
:1042A0000548630707231308E7FF1378D8FF9385B2
:1042B0001602630B080A37160140130800041305A1
:1042C000000448CA3EC4A246FD1636C4EDFE2328AB
:1042D00006013EC6B246FD1636C6EDFEFD15F5F1E9
:1042E000B7170140896623A8D7C0856623A8D7C021
:1042F0009377F70F3E852961828023280701930673
:1043000000043717014054CB9357150014CB93F694
:104310001700E39306BA8566232AD7C04DB6856792
:10432000232AF7C0E5BE8566232AD7C0D9BE232A33
:10433000D7C045BEB7160140056823AA06C115B30C
:104340008566232AD7C0F9B9371701408566232A25
:10435000D7C0D9BBB7160140856823AA16C171B36F
:10436000056823AA06C181B3034E960163070E2296
:10437000937E250063940E4463890648B715014077
:10438000930800041308000423AA05013ECC6246EA
:104390007D1632CC6DFE23A815013ECE72467D16E9
:1043A00032CE6DFEFD16EDF2B7160140096623A868
:1043B000C6C063020E04937E2500639E0E0205664E
:1043C000B716014023AAC6C0B71501401306100254
:1043D0001308000413050004C8C93EC8C246FD16F0
:1043E00036C8EDFE23A805013ECAD246FD1636CAE0
:1043F000EDFE7D1675F2B7170140856623A8D7C07C
:104400009377F70F3E852961828003489601630EFA
:10441000081893782500639808386380063E37179C
:1044200001401306000450CB10CBFD16EDFE89664B
:104430002328D7C0937825006303080263910802FC
:10444000371701408566232AD7C037160140130766
:1044500010029306000454CA14CA7D176DFF371763
:104460000140856693F7F70F2328D7C03E858280E9
:1044700093772500639107143717014093070004D1
:1044800089C65CCB1CCBFD16EDFEB7170140096752
:1044900023A8E7C09C4193060002814537170140DD
:1044A000856E1308000421A82328D7C1232A0701F9
:1044B00023280701FD16BE9585836387062C93F894
:1044C0001700130E07C0E39108FE232ADE01F9BF8F
:1044D00013772500631507183718014013030004EC
:1044E000930800048DC2232A1801BEC006477D1719
:1044F000BAC06DFF23286800BEC216477D17BAC236
:104500006DFFFD16EDF28966371701402328D7C0ED
:104510009441130800028148B71501400563930ECA
:104520000004130E000413F716002DC723A865C05E
:1045300023AAC5013EDC62577D173ADC6DFF23A834
:10454000D5013EDE72577D173ADE6DFF7D18B698B5
:104550008582E31A08FC93F8180037170140856636
:10456000639A0828232AD7C037170140930600040E
:1045700054CB3ED842577D173AD86DFF37170140CC
:104580009306000414CB3EDAD257FD173EDAEDFF56
:1045900085474DA223AA65C061BFE39106DEB71728
:1045A0000140896623A8D7C0B9B5E39A06E68966B3
:1045B0002328D7C06DB5930800020147014337187F
:1045C0000140930F0004930E0004232AD80183278F
:1045D000888005832328D8019583858B139FF70155
:1045E000FD183E933367EF00E39108FE232AF8019C
:1045F000832788802328F8019583B347F300858BB0
:10460000FD17E59BA10799C198C1142EB71501406C
:104610001307000489C6D8C998C9FD16EDFE3717DF
:10462000014089662328D7C01375050819C12324C2
:104630000600582611CFB7160140056623AAC6C04A
:10464000371601409306000454CA14CA7D176DFF43
:104650003717014085662328D7C03E858280130E18
:1046600000028148814E37130140930F0004130F5D
:104670000004232AE301BECC66477D17BACC6DFF48
:10468000032783802328F301BECE1583058B76484C
:104690007D18C2CEE31D08FE93D818001318F70149
:1046A0007D1EBA9EB3681801E3150EFC3717014052
:1046B00013080004232A0701BEC846477D17BAC85D
:1046C0006DFF371701400328878013030004232858
:1046D00067001358580013781800BECA56477D1754
:1046E000BACA6DFFB3C70E01858BFD17E59BA10705
:1046F00081C523A01501142E8DCA03284600B715C5
:104700000140130300049308000423AA1501C2C446
:1047100026477D17BAC46DFF23A86500C2C6364779
:104720007D17BAC66DFFFD16EDF237170140896699
:104730002328D7C01375050819C123240600542661
:1047400085CE4C42371701400566232AC7C013089F
:104750000004371601401305000448CA2ED422571E
:104760007D173AD46DFF232806012ED632577D17C8
:104770003AD66DFFFD16F5F23717014085662328FE
:10478000D7C03E85296182808589B71701400567BA
:10479000B9ED23AAE7C0B717014013070004D8CB2F
:1047A00098CB854751B513071002B7150140130682
:1047B0000004D0C990C97D176DFF85B19305100223
:1047C000371801401303000493080004232A18013A
:1047D0003ED002567D1632D06DFE232868003ED2B0
:1047E00012567D1632D26DFEFD15EDF171B623A87D
:1047F000E7C055B72328D7C085BB37170140896666
:104800002328D7C0E39D08C425B9B716014009661F
:1048100023A8C6C0E3910EBE5DB6EFB27FA14111E1
:104820002E892AC613044006894411A03DC06C009D
:1048300015457D14EFF08FE31374F40FE30895FE34
:1048400085476318F5044AC613044006894411A03D
:1048500029C06C0035457D14EFF04FE11374F40F5F
:10486000E30895FE85476316F50213044006894464
:1048700011A005C0814539457D14EFF02FDF137479
:10488000F40FE30895FE7D151335150041016FB057
:104890007F9C014541016FB0FF9BEFB2DF97B76985
:1048A00000209389894E83A7090041112A8A9DCB54
:1048B00002C6130440066400094911A009CCA6856C
:1048C00021457D14EFF08FDA1374F40FE30825FF10
:1048D00085476307F50081473E8541016FB0FF962C
:1048E00023A0090003A749008547E30747FF23A248
:1048F000490152C6130440066400094911A061DC55
:10490000A68505457D14EFF06FD61374F40FE30808
:1049100025FF05478147E311E5FC13044006894460
:1049200011A055D8814539457D14EFF02FD413746B
:10493000F40FE30895FE7D15933715003E85410180
:104940006FB0BF90EFB2DF8E3705002337F400E081
:10495000130525058324C4D0893711C9B705FA0585
:1049600093F404709105C58D1305C4D07D356FB0E7
:104970007F8EEFB2FF8BEFB09F9937370240A300D5
:104980000740C146A300D74023000740930690028A
:104990002300D740FD562305D74023010740930647
:1049A00030022301D740FD562328D740232A074051
:1049B000232C074083470740014593E70701230065
:1049C000F7406FB03F8909E5B7370240A381074040
:1049D000B76700209387077788A7014582801C214D
:1049E00003582500834815009396870113F7F707AE
:1049F000E1869317270063CF0604B386E7009395FB
:104A00002600B766002093860677AE9685452387F5
:104A100016152388B6143736024003230641854510
:104A200041073397E5002396061593080640336740
:104A300067001306B64D23A8E8003E961307200230
:104A400018A236213737024013078749BA9796A331
:104A500001458280B386E70093952600B766002063
:104A600093860677AE968545238716018CAA37363E
:104A700002400323064185453397E500239606014E
:104A800093080640336767001306A64D23A8E80085
:104A90003E961307200218A236213737024013072B
:104AA0008749BA9796A30145828001458280931772
:104AB0008501E1871375F50763C6070209CDB7378E
:104AC00002409387B74D0A053E951C2193E73700B6
:104AD0001CA101458280B73702400D47A38DE74CEA
:104AE0000145828001E9B73702400D47238DE74C2D
:104AF00001458280B73702409387A74D0A053E954E
:104B00001C2193E737001CA1014582809377F507AC
:104B1000620561858A07373702406349050013073C
:104B2000B74DBA9723800700014582801307A74D30
:104B3000BA97094798A3014582801375F507C9C93B
:104B400013172500B307A700B766002093860677E2
:104B50008A07B69703C80701630D080CCCCB90CF2A
:104B600023AE070031C1B73602409386864DBA9610
:104B70007D1535E223900600B73702409387A74D95
:104B80003E97B7670020938707763E951C23142134
:104B900093F7470E93F6F60F99C293E7870093F7C2
:104BA000F70F1CA30145828021E6B7370240239C02
:104BB000074CB767002083C7174F373702400145BE
:104BC00093F7F70FB337F0008E07230DF74C828071
:104BD00025DA7D558280DE276362F604C207C18331
:104BE0009EA2B737024093878745BA978CC369B7AF
:104BF000DE26636BF600C20737370240C183231CF1
:104C0000F74C232EB74075B7B287C207373702403B
:104C1000C183231CF74C232EB74061BFB287C20764
:104C2000C1839EA2B737024093878745BA978CC34A
:104C3000A1B7795582801375F507B5CD9317250077
:104C4000AA9713972700B767002093870777BA972B
:104C500003C7071551CF13F735002E8841EF23AA5C
:104C6000B71423ACC71423AE071405C53737024069
:104C70009307F5FF8A0793060742BE961307F74D81
:104C800023A00601BA97982301451377C70F98A36D
:104C9000828021CA37370240232EB740B7670020F1
:104CA00083C7074F014593F7F70FB337F0008E071F
:104CB000A30DF74C828029E293172500AA9713973A
:104CC0002700B767002093870777BA9703C70715B0
:104CD00005C323AA071423AC071423AE0714014805
:104CE00051F5B73702402147A38DE74C014582803B
:104CF00079558280755582807D5582804111B73704
:104D0000024022C626C44AC21384074038241377BF
:104D1000F70F93762700DDC22834383489463D8961
:104D200011830D8B6308D71E2DEF630805303834CF
:104D3000137707043DC7131325001386B74D1A9642
:104D400014223307A30093F6C60F93E6260014A29D
:104D500093162700376700201307077736975624E6
:104D6000832847158325C71503288715C206C182E6
:104D7000035EC714B698B6953308D840232A171592
:104D8000232EB714232C071563E0C633630E0830B7
:104D90009387C7413E93232013011C2293F7C70F2B
:104DA0001CA2B737024009472385E7409387074095
:104DB0003244A24412494101730020309376070225
:104DC000639E061A058B6DD74167050718C8231C1B
:104DD000040C0947230DE40C0549B7660020A3889D
:104DE000264F376700202308274F239E074C1307C1
:104DF0002002238FE74CB7660020A38FE74C9386F1
:104E00000676238006002390074E2381E74EA38178
:104E1000E74EA38006002392074E2383E74EA38329
:104E2000E74E238106002394074E2385E74EA38592
:104E3000E74EA38106002396074E2387E74EA387FC
:104E4000E74E238206002398074E2389E74EA38965
:104E5000E74EA3820600239A074E238BE74EA38BCF
:104E6000E74E23830600239C074E238DE74EA38D38
:104E7000E74EA3830600239E074E238FE74EA38FA2
:104E8000E74E23840600239007502381E750A38137
:104E9000E750A3840600239207502383E750A3839F
:104EA000E75023850600239407502385E750A38508
:104EB000E750A3850600239607502387E750A38772
:104EC000E75023860600239807502389E750A389DB
:104ED000E750A3860600239A0750238BE7503768D4
:104EE0000020A38BE7501306C028814513050877DF
:104EF0009304087723870600EFB08FB6992944CC36
:104F0000A30D040C230524013244A244124941019B
:104F10007300203059E137640020130404771C4CDF
:104F20005624B7640020584C9384144F63ECF61455
:104F30003E9785479CA081471CCCBA851305000885
:104F400058CC09261C2493F7F70F91CB1824B737B8
:104F500002401377F70FA381E740230404007E206B
:104F600089C783070400E3CE07E2B737024023AEC8
:104F70008740A38D074C85479CA025B53765002049
:104F800013050577EF00B057930700023CA43244A5
:104F9000A244124941017300203093182500138860
:104FA000A74D4698834608003387A80013162700AC
:104FB00093F6460E3767002093E62600130707771F
:104FC0002300D8003297104F5627930EF5FF63FF4A
:104FD000C60CB765002093850576338FD501484B05
:104FE000032EC70103430F003695158E369E1343DB
:104FF00013009387874D48CB10CF232EC701230082
:105000006F00C6976367D608C206C18296A3B737FA
:10501000024093878745C69788C3F6958347080063
:10502000982193F7470E1377F70F19C393E787007B
:1050300093F7F70F2300F800ADB30359C400B7642A
:1050400000209384047783A7C41503A7841542091D
:1050500013590901CA9733072741BE8523AEF414BB
:1050600023ACE41419246318090244CCA30D040CE6
:105070008547B7660020376700202388F64EA308CF
:10508000F74E05B39020958F36979346160094A05F
:1050900065B5B28695BFB76700209387074F982301
:1050A0001347170098A3F5B9C922E5B9B7670020DF
:1050B00093870776544FBE9E83C70E003696B285FF
:1050C00093C717001365050850CF232C07002380D2
:1050D000FE008D2AF9B1375700001307470F18C19A
:1050E00023220500232405002326050082808280D8
:1050F00082808280EFB2CF931C311307100201111E
:105100002E8944216387E7042A846370F70213071A
:105110002002638DE70A130730026392E7082685B1
:10512000C93F014505616FB0EF9213070002639814
:10513000E7067C3170218C41A2075D8E2808EF10B4
:10514000B0622C082685EF10B03E014505616FB0B6
:105150006F902C08268532C6EF10904283270900F5
:105160000345B101834891010348A1018345C10171
:105170008346D1010347E101034381013246A8B3CD
:1051800023806700A380170123810701CCA3D4B338
:10519000F8A39D471CC2014505616FB0AF8B3785F1
:1051A000000013050573EF1050670C3037850000C1
:1051B00013050574EF1070663785000013058576BA
:1051C000EF10B0657D5505616FB0CF882C313C2163
:1051D0002685139485005D8C93751400093F9355C3
:1051E0001400268585892937014505616FB08F86B2
:1051F000EFB20F84938701859847D0472E970D8E85
:1052000098C7D0C70DEAD82B09EFFA231DC38387AF
:10521000070063D00702014681450145EFF0BFA1B9
:1052200009A80146814513050008238A0700EFF00D
:10523000DF906FB02F82BA8513050008EFF0FF8F63
:105240006FB04F811377F50793171700BA9713972D
:10525000270093870185BA9783A7871591C7EFA287
:105260003FFD82976FA01FFF82801377F50793178A
:105270001700BA971397270093870185BA9783A7DA
:10528000871B91C7EFA2DFFA82976FA0BFFC8280D5
:10529000EFA21FFAAA841306002181451385018518
:1052A000EFA01FFC13840185930700F82308F41472
:1052B000B75700009387071F232CF414B75700003B
:1052C0009387873B04CC232CF41A6FA0BFF823A844
:1052D000A186828023AAA18682809387018503C745
:1052E000C714930687048A0618ADBE960507C8C67C
:1052F0002386E71482801C21504113978701618720
:10530000634F0700139717003E97931627001387E4
:10531000018536972308F71A232CC71A828093F643
:10532000F707139716003697931627001387018502
:1053300036972308F714232CC714828003C581975E
:105340003335A0008280EFA2BFEEEFF08FE26FA0B6
:105350007FF0EFA2FFED41110145EFF0CFE6B70777
:105360004000938707089384018528003EC4238466
:105370000412EFF0CFE6280023040100EFF02FE63F
:1053800003C7C41405C70144930784048A07A6977A
:10539000DC478145054591C7DC4781C7829703C734
:1053A000C41405041374F40FE360E4FE0545EF1024
:1053B000A06541016FA01FEA85C5EFA27FE41384B9
:1053C00001851C4450440111AE970D8E1CC450C47D
:1053D00009CABE850145EFF01F8605616FA01FE673
:1053E00082801C201305840208C413F70706930665
:1053F00000026302D710930600046308D70035CB80
:1054000013050008EFF0AFEAC9BF5C4C6382072ABE
:105410001830DC236307F74C0347C4148144130A94
:105420000401930984001DC7938784048A07A29707
:10543000DC4781CF9C4791CB5286CE851385018571
:105440008297630105240347C414850493F4F40F81
:10545000E3ECE4FCB784000037990000130589866B
:10546000EF10B03B3795000013054599EF10304C15
:105470003DAA8D8B05476384E728638E0720894604
:105480006393D7028347841299CF1C304420638BE7
:10549000E7506386072E0D476397E7003E20638041
:1054A000074023280400B7890000B784000037991B
:1054B000000013058986EF1050363795000013055C
:1054C000458AEF10D04613858476EF10103513858A
:1054D000097CEF1090347E205A20362010300C20AA
:1054E000379500001305C58BEF1030331385847694
:1054F000EF10B03231B78D8B05476383E70C094756
:105500006399E7080347C41449C78327C41281C7B6
:10551000DC4363900716854763FDE7068327041382
:1055200081C7DC436397071489476304F706832721
:10553000441381C7DC43639E07128D47630BF70456
:105540008327841381C7DC43639507129147630265
:10555000F7048327C41381C7DC43639C0710954776
:105560006309F7028327041481C7DC4363930710A0
:1055700099476300F7028327441481C7DC43639A89
:10558000070E9D476307F7008327841499C3DC4304
:10559000EDE33795000013058586EF101028379549
:1055A00000001305C591EF109038B78400001385F3
:1055B0008476EF109026378500001305057C11BF17
:1055C0000347C41479D70326C412542011C61C42C1
:1055D00081C7102E638FC6088547E3FCE7FA0326D0
:1055E000041311C61C4281C7102E6384C608894764
:1055F000E301F7FA0326441311C61C4281C7102E9B
:105600006309D6068D47E306F7F80326841311C60F
:105610001C4281C7102E630ED6049147E30BF7F6A8
:105620000326C41311C61C4281C7102E6383C6040F
:105630009547E300F7F60326041411C61C4281C700
:10564000102E6388C6029947E305F7F40326441435
:1056500011C61C4281C7102E638DC6009D47E30A08
:10566000F7F20327841415D71C4385D7182FE312AC
:10567000D7F21306040193058400138501858297F0
:10568000E34905F00146814513050008EFF0EFCA34
:1056900005616FA0BFBA1430A5472620E3E5D7E027
:1056A00021679397260013070777BA979C43828751
:1056B0001C50E38307D61830FC23E31FF7D45A208D
:1056C0009D476317F722378500001305057CEF100F
:1056D000D0143795000013058597EF1050253785B6
:1056E000000013058576EF1050131C500844D22398
:1056F0008C43EF1070071C50DE231CC861B7834732
:105700008412E38207DA1C3019473620034A44002A
:105710006384E72C6373F7062947638CE73A2D47C8
:10572000E393E7D80329840193F9F60F8344090032
:10573000638C0450814C130DF00F930DF00F114B3F
:10574000954A378C0000B78B000011A8639457016D
:105750006305BA3D269983440900638E043E83475E
:105760001900E39567FF834D2900034D3900E313CA
:10577000BAFFE391A9FFCA8CF1BFE39607D289472C
:10578000231404021CC8FDBD93D984008D4793F8EF
:10579000F90F93F4F40F6380F940BD476380F94E2D
:1057A0009387C8FF93F7F70F0547E37EF7CE9D4732
:1057B000E3EB17CF0C4C982111E7FDA9BA9598217E
:1057C000630C074E9431E39B16FF6384C4460506C1
:1057D000F5B713F5F40FEFF00F9F232804005DB524
:1057E000930784121CC485471CC869BD8547638123
:1057F000F40E2328040079B50329840193F9F40FEA
:1058000083440900E38F04C80145130DF00F930B87
:10581000F00F114B954AB78D0000B79C0000378CF4
:105820000000094A01A863894717269983440900A3
:105830006386042A83471900638D6715E39557FF34
:10584000E39579FFE3130DFE8347290013850D7C53
:10585000230CF1008347590003474900A207D98F61
:1058600093F7F77FFC85834739008D8BA30CF100FC
:10587000EF10A07AB4850346910183458101138519
:105880000C81EF10807913058C76EF1000792808D1
:10589000EFF0EF94133515008344090079B737957D
:1058A000000013058586EF10407737950000A68528
:1058B00013050589EF10607637850000130585769E
:1058C000EF10A0752685EFF08F9E232804005DBBA6
:1058D0008D47638BF6402945EF1000132328040001
:1058E00055B35E2011476380E70815476385E702DB
:1058F0003799000013058986EF1020723795000054
:1059000013050596EF10B002B78400001385847666
:10591000EF10A070A1B6378500001305057CEF10CD
:10592000C06F3795000013054594EF105000378580
:10593000000013058576EF10406E5C4C3A20084459
:10594000DC470A07BA978C4384319421B821BC31D3
:10595000A204B6944207BA94E207BE942686EF10DA
:10596000A06004C805B3378500001305057CEF105F
:10597000C06A3795000013054593EF10407B3785CB
:10598000000013058576EF1040695C4C08448C4795
:1059900065BF034D390051BD834B5900E39779E949
:1059A000054561B53E20E39E07AE3795000013051F
:1059B0008586EF10806637950000A68513058587DC
:1059C000EF10A0653785000013058576EF10E064C1
:1059D0002685EFF0AF937DB1A18293072002B789AE
:1059E0000000E394F6AC1385097CEF100063379553
:1059F000000013050583EF108073B7840000138542
:105A00008476EF1080618347C414E38207AA832A57
:105A1000C41263860A0003C78A016301470B054766
:105A2000E377F7A8832A041363860A0003C78A0171
:105A3000630647090947E38CE7A6832A4413638674
:105A40000A0003C78A01630B47070D47E381E7A6F6
:105A5000832A841363860A0003C78A016300470709
:105A60001147E386E7A4832AC41363860A0003C7A9
:105A70008A01630547051547E38BE7A2832A0414CF
:105A800063860A0003C78A01630A47031947E38054
:105A9000E7A2832A441463860A0003C78A01630FBE
:105AA00047011D47E385E7A0832A8414E3810AA008
:105AB00083C78A0137990000E39D479F03A64A01E7
:105AC00083A50A010844EF10204A83A74A011CC895
:105AD00055BE8547230404021CC86DB6E303059C2C
